{
  "contractName": "CredentialStore",
  "abi": [
    {
      "constant": true,
      "inputs": [],
      "name": "studentIndex",
      "outputs": [
        {
          "name": "",
          "type": "uint256"
        }
      ],
      "payable": false,
      "stateMutability": "view",
      "type": "function"
    },
    {
      "constant": true,
      "inputs": [],
      "name": "studentnum",
      "outputs": [
        {
          "name": "",
          "type": "uint256"
        }
      ],
      "payable": false,
      "stateMutability": "view",
      "type": "function"
    },
    {
      "inputs": [],
      "payable": false,
      "stateMutability": "nonpayable",
      "type": "constructor"
    },
    {
      "constant": false,
      "inputs": [
        {
          "name": "_Cnum",
          "type": "string"
        },
        {
          "name": "_name",
          "type": "string"
        },
        {
          "name": "_school",
          "type": "string"
        },
        {
          "name": "_Degreetype",
          "type": "string"
        },
        {
          "name": "_imageLink",
          "type": "string"
        },
        {
          "name": "_descLink",
          "type": "string"
        },
        {
          "name": "starttime",
          "type": "uint256"
        },
        {
          "name": "finishtime",
          "type": "uint256"
        },
        {
          "name": "_avggrade",
          "type": "uint256"
        },
        {
          "name": "_acadeper",
          "type": "string"
        },
        {
          "name": "_gender",
          "type": "uint256"
        },
        {
          "name": "_major",
          "type": "string"
        },
        {
          "name": "_updatetime",
          "type": "uint256"
        }
      ],
      "name": "addStudentToStore",
      "outputs": [],
      "payable": false,
      "stateMutability": "nonpayable",
      "type": "function"
    },
    {
      "constant": true,
      "inputs": [
        {
          "name": "_stuId",
          "type": "uint256"
        }
      ],
      "name": "getStudentInfo",
      "outputs": [
        {
          "name": "",
          "type": "uint256"
        },
        {
          "name": "",
          "type": "string"
        },
        {
          "name": "",
          "type": "string"
        },
        {
          "name": "",
          "type": "string"
        },
        {
          "name": "",
          "type": "string"
        },
        {
          "name": "",
          "type": "uint8"
        },
        {
          "name": "",
          "type": "string"
        },
        {
          "name": "",
          "type": "uint256"
        }
      ],
      "payable": false,
      "stateMutability": "view",
      "type": "function"
    },
    {
      "constant": true,
      "inputs": [
        {
          "name": "_stuId",
          "type": "uint256"
        }
      ],
      "name": "getStudentDetails",
      "outputs": [
        {
          "name": "",
          "type": "string"
        },
        {
          "name": "",
          "type": "string"
        },
        {
          "name": "",
          "type": "uint256"
        },
        {
          "name": "",
          "type": "uint256"
        },
        {
          "name": "",
          "type": "address"
        }
      ],
      "payable": false,
      "stateMutability": "view",
      "type": "function"
    },
    {
      "constant": true,
      "inputs": [
        {
          "name": "_stuId",
          "type": "uint256"
        }
      ],
      "name": "getStudentGrades",
      "outputs": [
        {
          "name": "",
          "type": "uint256"
        },
        {
          "name": "",
          "type": "string"
        }
      ],
      "payable": false,
      "stateMutability": "view",
      "type": "function"
    },
    {
      "constant": false,
      "inputs": [
        {
          "name": "_stuId",
          "type": "uint256"
        },
        {
          "name": "_Cnum",
          "type": "string"
        },
        {
          "name": "_name",
          "type": "string"
        },
        {
          "name": "_major",
          "type": "string"
        },
        {
          "name": "_Degreetype",
          "type": "string"
        },
        {
          "name": "_imageLink",
          "type": "string"
        },
        {
          "name": "_descLink",
          "type": "string"
        },
        {
          "name": "starttime",
          "type": "uint256"
        },
        {
          "name": "finishtime",
          "type": "uint256"
        },
        {
          "name": "_avggrade",
          "type": "uint256"
        }
      ],
      "name": "changeStudentInfo1",
      "outputs": [],
      "payable": false,
      "stateMutability": "nonpayable",
      "type": "function"
    },
    {
      "constant": false,
      "inputs": [
        {
          "name": "_stuId",
          "type": "uint256"
        },
        {
          "name": "_acadeper",
          "type": "string"
        },
        {
          "name": "_gender",
          "type": "uint256"
        },
        {
          "name": "_updatetime",
          "type": "uint256"
        }
      ],
      "name": "changeStudentInfo2",
      "outputs": [],
      "payable": false,
      "stateMutability": "nonpayable",
      "type": "function"
    },
    {
      "constant": false,
      "inputs": [
        {
          "name": "_stuId",
          "type": "uint256"
        }
      ],
      "name": "deleteStudentInfo",
      "outputs": [],
      "payable": false,
      "stateMutability": "nonpayable",
      "type": "function"
    },
    {
      "constant": true,
      "inputs": [
        {
          "name": "_school",
          "type": "string"
        },
        {
          "name": "_stdId",
          "type": "uint256"
        }
      ],
      "name": "searchStudentInfo",
      "outputs": [
        {
          "name": "",
          "type": "uint256"
        },
        {
          "name": "",
          "type": "string"
        },
        {
          "name": "",
          "type": "string"
        },
        {
          "name": "",
          "type": "string"
        }
      ],
      "payable": false,
      "stateMutability": "view",
      "type": "function"
    }
  ],
  "bytecode": "0x608060405234801561001057600080fd5b5060008081905550600060018190555061346c8061002f6000396000f3fe6080604052600436106100a4576000357c0100000000000000000000000000000000000000000000000000000000900463ffffffff168063151b151c146100a95780632a501b89146100d45780634c32d9ef146104b857806365a81d7d146105735780636cabb918146107fa57806386a9b36414610825578063914e557314610986578063c39ce3ea14610ea2578063d150933c14610edd578063f83c4efa14610fc3575b600080fd5b3480156100b557600080fd5b506100be6111ed565b6040518082815260200191505060405180910390f35b3480156100e057600080fd5b506104b660048036036101408110156100f857600080fd5b81019080803590602001909291908035906020019064010000000081111561011f57600080fd5b82018360208201111561013157600080fd5b8035906020019184600183028401116401000000008311171561015357600080fd5b91908080601f016020809104026020016040519081016040528093929190818152602001838380828437600081840152601f19601f820116905080830192505050505050509192919290803590602001906401000000008111156101b657600080fd5b8201836020820111156101c857600080fd5b803590602001918460018302840111640100000000831117156101ea57600080fd5b91908080601f016020809104026020016040519081016040528093929190818152602001838380828437600081840152601f19601f8201169050808301925050505050505091929192908035906020019064010000000081111561024d57600080fd5b82018360208201111561025f57600080fd5b8035906020019184600183028401116401000000008311171561028157600080fd5b91908080601f016020809104026020016040519081016040528093929190818152602001838380828437600081840152601f19601f820116905080830192505050505050509192919290803590602001906401000000008111156102e457600080fd5b8201836020820111156102f657600080fd5b8035906020019184600183028401116401000000008311171561031857600080fd5b91908080601f016020809104026020016040519081016040528093929190818152602001838380828437600081840152601f19601f8201169050808301925050505050505091929192908035906020019064010000000081111561037b57600080fd5b82018360208201111561038d57600080fd5b803590602001918460018302840111640100000000831117156103af57600080fd5b91908080601f016020809104026020016040519081016040528093929190818152602001838380828437600081840152601f19601f8201169050808301925050505050505091929192908035906020019064010000000081111561041257600080fd5b82018360208201111561042457600080fd5b8035906020019184600183028401116401000000008311171561044657600080fd5b91908080601f016020809104026020016040519081016040528093929190818152602001838380828437600081840152601f19601f8201169050808301925050505050505091929192908035906020019092919080359060200190929190803590602001909291905050506111f3565b005b3480156104c457600080fd5b506104f1600480360360208110156104db57600080fd5b8101908080359060200190929190505050611349565b6040518083815260200180602001828103825283818151815260200191508051906020019080838360005b8381101561053757808201518184015260208101905061051c565b50505050905090810190601f1680156105645780820380516001836020036101000a031916815260200191505b50935050505060405180910390f35b34801561057f57600080fd5b506105ac6004803603602081101561059657600080fd5b8101908080359060200190929190505050611934565b60405180898152602001806020018060200180602001806020018860018111156105d257fe5b60ff1681526020018060200187815260200186810386528d818151815260200191508051906020019080838360005b8381101561061c578082015181840152602081019050610601565b50505050905090810190601f1680156106495780820380516001836020036101000a031916815260200191505b5086810385528c818151815260200191508051906020019080838360005b83811015610682578082015181840152602081019050610667565b50505050905090810190601f1680156106af5780820380516001836020036101000a031916815260200191505b5086810384528b818151815260200191508051906020019080838360005b838110156106e85780820151818401526020810190506106cd565b50505050905090810190601f1680156107155780820380516001836020036101000a031916815260200191505b5086810383528a818151815260200191508051906020019080838360005b8381101561074e578082015181840152602081019050610733565b50505050905090810190601f16801561077b5780820380516001836020036101000a031916815260200191505b50868103825288818151815260200191508051906020019080838360005b838110156107b4578082015181840152602081019050610799565b50505050905090810190601f1680156107e15780820380516001836020036101000a031916815260200191505b509d505050505050505050505050505060405180910390f35b34801561080657600080fd5b5061080f61200d565b6040518082815260200191505060405180910390f35b34801561083157600080fd5b5061085e6004803603602081101561084857600080fd5b8101908080359060200190929190505050612013565b6040518080602001806020018681526020018581526020018473ffffffffffffffffffffffffffffffffffffffff1673ffffffffffffffffffffffffffffffffffffffff168152602001838103835288818151815260200191508051906020019080838360005b838110156108e05780820151818401526020810190506108c5565b50505050905090810190601f16801561090d5780820380516001836020036101000a031916815260200191505b50838103825287818151815260200191508051906020019080838360005b8381101561094657808201518184015260208101905061092b565b50505050905090810190601f1680156109735780820380516001836020036101000a031916815260200191505b5097505050505050505060405180910390f35b34801561099257600080fd5b50610ea060048036036101a08110156109aa57600080fd5b81019080803590602001906401000000008111156109c757600080fd5b8201836020820111156109d957600080fd5b803590602001918460018302840111640100000000831117156109fb57600080fd5b91908080601f016020809104026020016040519081016040528093929190818152602001838380828437600081840152601f19601f82011690508083019250505050505050919291929080359060200190640100000000811115610a5e57600080fd5b820183602082011115610a7057600080fd5b80359060200191846001830284011164010000000083111715610a9257600080fd5b91908080601f016020809104026020016040519081016040528093929190818152602001838380828437600081840152601f19601f82011690508083019250505050505050919291929080359060200190640100000000811115610af557600080fd5b820183602082011115610b0757600080fd5b80359060200191846001830284011164010000000083111715610b2957600080fd5b91908080601f016020809104026020016040519081016040528093929190818152602001838380828437600081840152601f19601f82011690508083019250505050505050919291929080359060200190640100000000811115610b8c57600080fd5b820183602082011115610b9e57600080fd5b80359060200191846001830284011164010000000083111715610bc057600080fd5b91908080601f016020809104026020016040519081016040528093929190818152602001838380828437600081840152601f19601f82011690508083019250505050505050919291929080359060200190640100000000811115610c2357600080fd5b820183602082011115610c3557600080fd5b80359060200191846001830284011164010000000083111715610c5757600080fd5b91908080601f016020809104026020016040519081016040528093929190818152602001838380828437600081840152601f19601f82011690508083019250505050505050919291929080359060200190640100000000811115610cba57600080fd5b820183602082011115610ccc57600080fd5b80359060200191846001830284011164010000000083111715610cee57600080fd5b91908080601f016020809104026020016040519081016040528093929190818152602001838380828437600081840152601f19601f82011690508083019250505050505050919291929080359060200190929190803590602001909291908035906020019092919080359060200190640100000000811115610d6f57600080fd5b820183602082011115610d8157600080fd5b80359060200191846001830284011164010000000083111715610da357600080fd5b91908080601f016020809104026020016040519081016040528093929190818152602001838380828437600081840152601f19601f8201169050808301925050505050505091929192908035906020019092919080359060200190640100000000811115610e1057600080fd5b820183602082011115610e2257600080fd5b80359060200191846001830284011164010000000083111715610e4457600080fd5b91908080601f016020809104026020016040519081016040528093929190818152602001838380828437600081840152601f19601f8201169050808301925050505050505091929192908035906020019092919050505061261d565b005b348015610eae57600080fd5b50610edb60048036036020811015610ec557600080fd5b8101908080359060200190929190505050612901565b005b348015610ee957600080fd5b50610fc160048036036080811015610f0057600080fd5b810190808035906020019092919080359060200190640100000000811115610f2757600080fd5b820183602082011115610f3957600080fd5b80359060200191846001830284011164010000000083111715610f5b57600080fd5b91908080601f016020809104026020016040519081016040528093929190818152602001838380828437600081840152601f19601f8201169050808301925050505050505091929192908035906020019092919080359060200190929190505050612b69565b005b348015610fcf57600080fd5b5061109360048036036040811015610fe657600080fd5b810190808035906020019064010000000081111561100357600080fd5b82018360208201111561101557600080fd5b8035906020019184600183028401116401000000008311171561103757600080fd5b91908080601f016020809104026020016040519081016040528093929190818152602001838380828437600081840152601f19601f82011690508083019250505050505050919291929080359060200190929190505050612c9d565b60405180858152602001806020018060200180602001848103845287818151815260200191508051906020019080838360005b838110156110e15780820151818401526020810190506110c6565b50505050905090810190601f16801561110e5780820380516001836020036101000a031916815260200191505b50848103835286818151815260200191508051906020019080838360005b8381101561114757808201518184015260208101905061112c565b50505050905090810190601f1680156111745780820380516001836020036101000a031916815260200191505b50848103825285818151815260200191508051906020019080838360005b838110156111ad578082015181840152602081019050611192565b50505050905090810190601f1680156111da5780820380516001836020036101000a031916815260200191505b5097505050505050505060405180910390f35b60005481565b60006002600360008d815260200190815260200160002060405180828054600181600116156101000203166002900480156112655780601f10611243576101008083540402835291820191611265565b820191906000526020600020905b815481529060010190602001808311611251575b5050915050908152602001604051809103902060008c81526020019081526020016000209050888160020190805190602001906112a392919061328a565b50898160010190805190602001906112bc92919061328a565b508781600c0190805190602001906112d592919061328a565b50868160040190805190602001906112ee92919061328a565b508581600501908051906020019061130792919061328a565b508481600601908051906020019061132092919061328a565b508381600701819055508281600801819055508181600901819055505050505050505050505050565b6000606061135561330a565b60026003600086815260200190815260200160002060405180828054600181600116156101000203166002900480156113c55780601f106113a35761010080835404028352918201916113c5565b820191906000526020600020905b8154815290600101906020018083116113b1575b5050915050908152602001604051809103902060008581526020019081526020016000206101c0604051908101604052908160008201548152602001600182018054600181600116156101000203166002900480601f0160208091040260200160405190810160405280929190818152602001828054600181600116156101000203166002900480156114995780601f1061146e57610100808354040283529160200191611499565b820191906000526020600020905b81548152906001019060200180831161147c57829003601f168201915b50505050508152602001600282018054600181600116156101000203166002900480601f01602080910402602001604051908101604052809291908181526020018280546001816001161561010002031660029004801561153b5780601f106115105761010080835404028352916020019161153b565b820191906000526020600020905b81548152906001019060200180831161151e57829003601f168201915b505050505081526020016003820160009054906101000a900473ffffffffffffffffffffffffffffffffffffffff1673ffffffffffffffffffffffffffffffffffffffff1673ffffffffffffffffffffffffffffffffffffffff168152602001600482018054600181600116156101000203166002900480601f0160208091040260200160405190810160405280929190818152602001828054600181600116156101000203166002900480156116335780601f1061160857610100808354040283529160200191611633565b820191906000526020600020905b81548152906001019060200180831161161657829003601f168201915b50505050508152602001600582018054600181600116156101000203166002900480601f0160208091040260200160405190810160405280929190818152602001828054600181600116156101000203166002900480156116d55780601f106116aa576101008083540402835291602001916116d5565b820191906000526020600020905b8154815290600101906020018083116116b857829003601f168201915b50505050508152602001600682018054600181600116156101000203166002900480601f0160208091040260200160405190810160405280929190818152602001828054600181600116156101000203166002900480156117775780601f1061174c57610100808354040283529160200191611777565b820191906000526020600020905b81548152906001019060200180831161175a57829003601f168201915b50505050508152602001600782015481526020016008820154815260200160098201548152602001600a82018054600181600116156101000203166002900480601f0160208091040260200160405190810160405280929190818152602001828054600181600116156101000203166002900480156118375780601f1061180c57610100808354040283529160200191611837565b820191906000526020600020905b81548152906001019060200180831161181a57829003601f168201915b50505050508152602001600b820160009054906101000a900460ff16600181111561185e57fe5b600181111561186957fe5b8152602001600c82018054600181600116156101000203166002900480601f0160208091040260200160405190810160405280929190818152602001828054600181600116156101000203166002900480156119065780601f106118db57610100808354040283529160200191611906565b820191906000526020600020905b8154815290600101906020018083116118e957829003601f168201915b50505050508152602001600d8201548152505090508061012001518161014001518090509250925050915091565b600060608060608060006060600061194a61330a565b6002600360008c815260200190815260200160002060405180828054600181600116156101000203166002900480156119ba5780601f106119985761010080835404028352918201916119ba565b820191906000526020600020905b8154815290600101906020018083116119a6575b5050915050908152602001604051809103902060008b81526020019081526020016000206101c0604051908101604052908160008201548152602001600182018054600181600116156101000203166002900480601f016020809104026020016040519081016040528092919081815260200182805460018160011615610100020316600290048015611a8e5780601f10611a6357610100808354040283529160200191611a8e565b820191906000526020600020905b815481529060010190602001808311611a7157829003601f168201915b50505050508152602001600282018054600181600116156101000203166002900480601f016020809104026020016040519081016040528092919081815260200182805460018160011615610100020316600290048015611b305780601f10611b0557610100808354040283529160200191611b30565b820191906000526020600020905b815481529060010190602001808311611b1357829003601f168201915b505050505081526020016003820160009054906101000a900473ffffffffffffffffffffffffffffffffffffffff1673ffffffffffffffffffffffffffffffffffffffff1673ffffffffffffffffffffffffffffffffffffffff168152602001600482018054600181600116156101000203166002900480601f016020809104026020016040519081016040528092919081815260200182805460018160011615610100020316600290048015611c285780601f10611bfd57610100808354040283529160200191611c28565b820191906000526020600020905b815481529060010190602001808311611c0b57829003601f168201915b50505050508152602001600582018054600181600116156101000203166002900480601f016020809104026020016040519081016040528092919081815260200182805460018160011615610100020316600290048015611cca5780601f10611c9f57610100808354040283529160200191611cca565b820191906000526020600020905b815481529060010190602001808311611cad57829003601f168201915b50505050508152602001600682018054600181600116156101000203166002900480601f016020809104026020016040519081016040528092919081815260200182805460018160011615610100020316600290048015611d6c5780601f10611d4157610100808354040283529160200191611d6c565b820191906000526020600020905b815481529060010190602001808311611d4f57829003601f168201915b50505050508152602001600782015481526020016008820154815260200160098201548152602001600a82018054600181600116156101000203166002900480601f016020809104026020016040519081016040528092919081815260200182805460018160011615610100020316600290048015611e2c5780601f10611e0157610100808354040283529160200191611e2c565b820191906000526020600020905b815481529060010190602001808311611e0f57829003601f168201915b50505050508152602001600b820160009054906101000a900460ff166001811115611e5357fe5b6001811115611e5e57fe5b8152602001600c82018054600181600116156101000203166002900480601f016020809104026020016040519081016040528092919081815260200182805460018160011615610100020316600290048015611efb5780601f10611ed057610100808354040283529160200191611efb565b820191906000526020600020905b815481529060010190602001808311611ede57829003601f168201915b50505050508152602001600d820154815250509050806000015181602001518260400151600360008e81526020019081526020016000208460800151856101600151866101800151876101a00151869650859550848054600181600116156101000203166002900480601f016020809104026020016040519081016040528092919081815260200182805460018160011615610100020316600290048015611fe45780601f10611fb957610100808354040283529160200191611fe4565b820191906000526020600020905b815481529060010190602001808311611fc757829003601f168201915b505050505094508393508191509850985098509850985098509850985050919395975091939597565b60015481565b606080600080600061202361330a565b60026003600089815260200190815260200160002060405180828054600181600116156101000203166002900480156120935780601f10612071576101008083540402835291820191612093565b820191906000526020600020905b81548152906001019060200180831161207f575b5050915050908152602001604051809103902060008881526020019081526020016000206101c0604051908101604052908160008201548152602001600182018054600181600116156101000203166002900480601f0160208091040260200160405190810160405280929190818152602001828054600181600116156101000203166002900480156121675780601f1061213c57610100808354040283529160200191612167565b820191906000526020600020905b81548152906001019060200180831161214a57829003601f168201915b50505050508152602001600282018054600181600116156101000203166002900480601f0160208091040260200160405190810160405280929190818152602001828054600181600116156101000203166002900480156122095780601f106121de57610100808354040283529160200191612209565b820191906000526020600020905b8154815290600101906020018083116121ec57829003601f168201915b505050505081526020016003820160009054906101000a900473ffffffffffffffffffffffffffffffffffffffff1673ffffffffffffffffffffffffffffffffffffffff1673ffffffffffffffffffffffffffffffffffffffff168152602001600482018054600181600116156101000203166002900480601f0160208091040260200160405190810160405280929190818152602001828054600181600116156101000203166002900480156123015780601f106122d657610100808354040283529160200191612301565b820191906000526020600020905b8154815290600101906020018083116122e457829003601f168201915b50505050508152602001600582018054600181600116156101000203166002900480601f0160208091040260200160405190810160405280929190818152602001828054600181600116156101000203166002900480156123a35780601f10612378576101008083540402835291602001916123a3565b820191906000526020600020905b81548152906001019060200180831161238657829003601f168201915b50505050508152602001600682018054600181600116156101000203166002900480601f0160208091040260200160405190810160405280929190818152602001828054600181600116156101000203166002900480156124455780601f1061241a57610100808354040283529160200191612445565b820191906000526020600020905b81548152906001019060200180831161242857829003601f168201915b50505050508152602001600782015481526020016008820154815260200160098201548152602001600a82018054600181600116156101000203166002900480601f0160208091040260200160405190810160405280929190818152602001828054600181600116156101000203166002900480156125055780601f106124da57610100808354040283529160200191612505565b820191906000526020600020905b8154815290600101906020018083116124e857829003601f168201915b50505050508152602001600b820160009054906101000a900460ff16600181111561252c57fe5b600181111561253757fe5b8152602001600c82018054600181600116156101000203166002900480601f0160208091040260200160405190810160405280929190818152602001828054600181600116156101000203166002900480156125d45780601f106125a9576101008083540402835291602001916125d4565b820191906000526020600020905b8154815290600101906020018083116125b757829003601f168201915b50505050508152602001600d8201548152505090508060a001518160c001518260e001518361010001518460600151849450839350955095509550955095505091939590929450565b600160008082825401925050819055506001806000828254019250508190555061264561330a565b6101c06040519081016040528060005481526020018f81526020018e81526020013373ffffffffffffffffffffffffffffffffffffffff1681526020018c81526020018b81526020018a81526020018981526020018881526020018781526020018681526020018560018111156126b857fe5b60018111156126c357fe5b81526020018481526020018381525090508060028d6040518082805190602001908083835b60208310151561270d57805182526020820191506020810190506020830392506126e8565b6001836020036101000a038019825116818451168082178552505050505050905001915050908152602001604051809103902060008054815260200190815260200160002060008201518160000155602082015181600101908051906020019061277892919061339b565b50604082015181600201908051906020019061279592919061339b565b5060608201518160030160006101000a81548173ffffffffffffffffffffffffffffffffffffffff021916908373ffffffffffffffffffffffffffffffffffffffff16021790555060808201518160040190805190602001906127f992919061339b565b5060a082015181600501908051906020019061281692919061339b565b5060c082015181600601908051906020019061283392919061339b565b5060e082015181600701556101008201518160080155610120820151816009015561014082015181600a01908051906020019061287192919061339b565b5061016082015181600b0160006101000a81548160ff0219169083600181111561289757fe5b021790555061018082015181600c0190805190602001906128b992919061339b565b506101a082015181600d01559050508b600360008054815260200190815260200160002090805190602001906128f092919061328a565b505050505050505050505050505050565b600060026003600084815260200190815260200160002060405180828054600181600116156101000203166002900480156129735780601f10612951576101008083540402835291820191612973565b820191906000526020600020905b81548152906001019060200180831161295f575b505091505090815260200160405180910390206000838152602001908152602001600020905060206040519081016040528060008152508160020190805190602001906129c192919061328a565b5060206040519081016040528060008152508160010190805190602001906129ea92919061328a565b5060008160030160006101000a81548173ffffffffffffffffffffffffffffffffffffffff021916908373ffffffffffffffffffffffffffffffffffffffff1602179055506020604051908101604052806000815250816004019080519060200190612a5792919061328a565b506020604051908101604052806000815250816005019080519060200190612a8092919061328a565b506020604051908101604052806000815250816006019080519060200190612aa992919061328a565b50600081600701819055506000816008018190555060008160090181905550602060405190810160405280600081525081600a019080519060200190612af092919061328a565b5060006001811115612afe57fe5b81600b0160006101000a81548160ff02191690836001811115612b1d57fe5b0217905550600081600d0181905550602060405190810160405280600081525081600c019080519060200190612b5492919061328a565b50600180600082825403925050819055505050565b60006002600360008781526020019081526020016000206040518082805460018160011615610100020316600290048015612bdb5780601f10612bb9576101008083540402835291820191612bdb565b820191906000526020600020905b815481529060010190602001808311612bc7575b50509150509081526020016040518091039020600086815260200190815260200160002090508381600a019080519060200190612c1992919061328a565b50826001811115612c2657fe5b81600b0160006101000a81548160ff02191690836001811115612c4557fe5b02179055508181600d0181905550338160030160006101000a81548173ffffffffffffffffffffffffffffffffffffffff021916908373ffffffffffffffffffffffffffffffffffffffff1602179055505050505050565b60006060806060612cac61330a565b6002876040518082805190602001908083835b602083101515612ce45780518252602082019150602081019050602083039250612cbf565b6001836020036101000a038019825116818451168082178552505050505050905001915050908152602001604051809103902060008781526020019081526020016000206101c0604051908101604052908160008201548152602001600182018054600181600116156101000203166002900480601f016020809104026020016040519081016040528092919081815260200182805460018160011615610100020316600290048015612dd85780601f10612dad57610100808354040283529160200191612dd8565b820191906000526020600020905b815481529060010190602001808311612dbb57829003601f168201915b50505050508152602001600282018054600181600116156101000203166002900480601f016020809104026020016040519081016040528092919081815260200182805460018160011615610100020316600290048015612e7a5780601f10612e4f57610100808354040283529160200191612e7a565b820191906000526020600020905b815481529060010190602001808311612e5d57829003601f168201915b505050505081526020016003820160009054906101000a900473ffffffffffffffffffffffffffffffffffffffff1673ffffffffffffffffffffffffffffffffffffffff1673ffffffffffffffffffffffffffffffffffffffff168152602001600482018054600181600116156101000203166002900480601f016020809104026020016040519081016040528092919081815260200182805460018160011615610100020316600290048015612f725780601f10612f4757610100808354040283529160200191612f72565b820191906000526020600020905b815481529060010190602001808311612f5557829003601f168201915b50505050508152602001600582018054600181600116156101000203166002900480601f0160208091040260200160405190810160405280929190818152602001828054600181600116156101000203166002900480156130145780601f10612fe957610100808354040283529160200191613014565b820191906000526020600020905b815481529060010190602001808311612ff757829003601f168201915b50505050508152602001600682018054600181600116156101000203166002900480601f0160208091040260200160405190810160405280929190818152602001828054600181600116156101000203166002900480156130b65780601f1061308b576101008083540402835291602001916130b6565b820191906000526020600020905b81548152906001019060200180831161309957829003601f168201915b50505050508152602001600782015481526020016008820154815260200160098201548152602001600a82018054600181600116156101000203166002900480601f0160208091040260200160405190810160405280929190818152602001828054600181600116156101000203166002900480156131765780601f1061314b57610100808354040283529160200191613176565b820191906000526020600020905b81548152906001019060200180831161315957829003601f168201915b50505050508152602001600b820160009054906101000a900460ff16600181111561319d57fe5b60018111156131a857fe5b8152602001600c82018054600181600116156101000203166002900480601f0160208091040260200160405190810160405280929190818152602001828054600181600116156101000203166002900480156132455780601f1061321a57610100808354040283529160200191613245565b820191906000526020600020905b81548152906001019060200180831161322857829003601f168201915b50505050508152602001600d82015481525050905080600001518160200151826040015183610180015182925081915080905094509450945094505092959194509250565b828054600181600116156101000203166002900490600052602060002090601f016020900481019282601f106132cb57805160ff19168380011785556132f9565b828001600101855582156132f9579182015b828111156132f85782518255916020019190600101906132dd565b5b509050613306919061341b565b5090565b6101c060405190810160405280600081526020016060815260200160608152602001600073ffffffffffffffffffffffffffffffffffffffff168152602001606081526020016060815260200160608152602001600081526020016000815260200160008152602001606081526020016000600181111561338757fe5b815260200160608152602001600081525090565b828054600181600116156101000203166002900490600052602060002090601f016020900481019282601f106133dc57805160ff191683800117855561340a565b8280016001018555821561340a579182015b828111156134095782518255916020019190600101906133ee565b5b509050613417919061341b565b5090565b61343d91905b80821115613439576000816000905550600101613421565b5090565b9056fea165627a7a72305820b76595c966c3e4dc1e21d80f7b88240349a362e7735dffe2557a7286019f22de0029",
  "source": "pragma solidity ^ 0.5.0;\r\ncontract CredentialStore {\r\n  //Enumeration variable definition\r\n    enum Gender {\r\n        male,\r\n        female\r\n    }\r\n    uint public studentIndex;   //Count the number of students stored in this app\r\n    uint public studentnum;\r\n\r\n  //link admin address with corresponding student sturctures(info) \r\n    mapping (string=>mapping (uint=>Student)) stores;  \r\n  //link student ID(in store) with school admin address\r\n    mapping (uint => string) studentIdInStore; \r\n\r\n    struct Student{\r\n        uint id;           //Student id in this store\r\n        string Cnum;         //Student certificate id\r\n        string name;       //student name\r\n        address scaccount;     //The ETH account used last time\r\n        string Degreetype;    //Degree level\r\n        string imageLink;  //Degree image hash\r\n        string descLink;   //Large-text description hash\r\n        uint starttime;  // the date when student start to learn\r\n        uint finishtime;    //graduation date\r\n        uint avergrade;     //average score in total years\r\n        string acadeper;        //academic performance(merit, pass,...)\r\n        Gender condition;  //Gender of the student\r\n        string major;        //student major\r\n        uint updatetime;     //The time when this student info added\r\n    }\r\n    \r\n    constructor ()  public {\r\n        studentIndex = 0;\r\n        studentnum = 0;\r\n    }\r\n    //Add student information to the blockchain\r\n    function addStudentToStore(string memory _Cnum, string memory _name, string memory _school, \r\n    string memory _Degreetype, string memory _imageLink, string memory _descLink, uint starttime, \r\n    uint finishtime, uint _avggrade, string memory _acadeper, uint _gender, string memory _major, \r\n    uint _updatetime) public {\r\n    studentIndex += 1;\r\n    studentnum +=1;\r\n    //Build a new structure to store student information\r\n    Student memory student = Student(studentIndex, _Cnum, _name, msg.sender, _Degreetype, _imageLink, \r\n    _descLink, starttime, finishtime, _avggrade, _acadeper, Gender(_gender), _major, _updatetime);\r\n    //link this structure to the mapping\r\n    stores[_school][studentIndex] = student;\r\n    studentIdInStore[studentIndex] = _school;\r\n  }\r\n   //Read some student information through the student ID\r\n  function getStudentInfo(uint _stuId) view public returns(uint, string memory, \r\n  string memory, string memory, string memory, Gender, string memory,uint) {\r\n\r\n    Student memory student = stores[studentIdInStore[_stuId]][_stuId];\r\n\r\n    return (student.id, student.Cnum, student.name, studentIdInStore[_stuId], \r\n    student.Degreetype, student.condition, student.major, student.updatetime);\r\n  }\r\n\r\n   //Read some student information through the student ID\r\n  function getStudentDetails(uint _stuId) view public returns(string memory, string memory, uint, uint, address) {\r\n    Student memory student = stores[studentIdInStore[_stuId]][_stuId];\r\n    return (student.imageLink, student.descLink, student.starttime, student.finishtime, student.scaccount);\r\n  }\r\n  \r\n  //Get students' grades\r\n  function getStudentGrades(uint _stuId) view public returns(uint,string memory) {\r\n    Student memory student = stores[studentIdInStore[_stuId]][_stuId];\r\n    return (student.avergrade, student.acadeper);\r\n  }\r\n\r\n  //Modify some contents in the student information structure.\r\n  function changeStudentInfo1(uint _stuId, string memory _Cnum, \r\n  string memory _name, string memory _major, \r\n  string memory _Degreetype, string memory _imageLink, \r\n  string memory _descLink, uint starttime, \r\n  uint finishtime, uint _avggrade) public {\r\n    Student storage chstudent = stores[studentIdInStore[_stuId]][_stuId];\r\n    chstudent.name = _name;\r\n    chstudent.Cnum = _Cnum;\r\n    chstudent.major = _major;\r\n    chstudent.Degreetype = _Degreetype;\r\n    chstudent.imageLink = _imageLink;\r\n    chstudent.descLink = _descLink;\r\n    chstudent.starttime = starttime;\r\n    chstudent.finishtime = finishtime;\r\n    chstudent.avergrade = _avggrade;\r\n  }\r\n\r\n//Modify some contents in the student information structure.\r\nfunction changeStudentInfo2(uint _stuId, string memory _acadeper, uint _gender, uint _updatetime) public {\r\n    Student storage chstudent = stores[studentIdInStore[_stuId]][_stuId];\r\n    chstudent.acadeper = _acadeper;\r\n    chstudent.condition = Gender(_gender);\r\n    chstudent.updatetime = _updatetime;\r\n    chstudent.scaccount = msg.sender;\r\n}\r\n\r\n //Delete function, not delete information structure, is to erase most variables' values in the structure.\r\n function deleteStudentInfo(uint _stuId) public {\r\n   Student storage destudent = stores[studentIdInStore[_stuId]][_stuId];\r\n    destudent.name = \"\";\r\n    destudent.Cnum = \"\";\r\n    destudent.scaccount = address(0x00);\r\n    destudent.Degreetype = \"\";\r\n    destudent.imageLink = \"\";\r\n    destudent.descLink = \"\";\r\n    destudent.starttime = 0;\r\n    destudent.finishtime = 0;\r\n    destudent.avergrade = 0;\r\n    destudent.acadeper = \"\";\r\n    destudent.condition = Gender(0);\r\n    destudent.updatetime = 0;\r\n    destudent.major = \"\";\r\n    studentnum -= 1;\r\n } \r\n  \r\n  //Use a school name and a student index to query the relevant student information structure.\r\n  function searchStudentInfo(string memory _school, uint _stdId) \r\n  view public returns(uint, string memory, string memory, string memory) {\r\n     Student memory student = stores[_school][_stdId];\r\n     return (student.id, student.Cnum, student.name, student.major);\r\n  }\r\n\r\n}\r\n\r\n",
  "sourcePath": "D:/std-credential-store/contracts/CredentialStore.sol",
  "compiler": {
    "name": "solc",
    "version": "0.5.0+commit.1d4f565a.Emscripten.clang"
  },
  "schemaVersion": "3.0.9",
  "updatedAt": "2019-08-18T10:07:05.792Z",
  "devdoc": {
    "methods": {}
  },
  "userdoc": {
    "methods": {}
  }
}