{
  "contractName": "UserloginInfo",
  "abi": [
    {
      "constant": true,
      "inputs": [],
      "name": "userIndex",
      "outputs": [
        {
          "name": "",
          "type": "uint256"
        }
      ],
      "payable": false,
      "stateMutability": "view",
      "type": "function"
    },
    {
      "inputs": [],
      "payable": false,
      "stateMutability": "nonpayable",
      "type": "constructor"
    },
    {
      "constant": false,
      "inputs": [
        {
          "name": "_username",
          "type": "string"
        },
        {
          "name": "_pwd",
          "type": "string"
        },
        {
          "name": "_schcomname",
          "type": "string"
        },
        {
          "name": "_acttype",
          "type": "uint256"
        },
        {
          "name": "_usactype",
          "type": "uint256"
        }
      ],
      "name": "addUser",
      "outputs": [],
      "payable": false,
      "stateMutability": "nonpayable",
      "type": "function"
    },
    {
      "constant": true,
      "inputs": [
        {
          "name": "_userId",
          "type": "uint256"
        }
      ],
      "name": "getUserInfo",
      "outputs": [
        {
          "name": "",
          "type": "string"
        },
        {
          "name": "",
          "type": "string"
        },
        {
          "name": "",
          "type": "string"
        },
        {
          "name": "",
          "type": "uint8"
        },
        {
          "name": "",
          "type": "uint8"
        }
      ],
      "payable": false,
      "stateMutability": "view",
      "type": "function"
    }
  ],
  "bytecode": "0x608060405234801561001057600080fd5b5060008081905550610965806100276000396000f3fe608060405260043610610057576000357c0100000000000000000000000000000000000000000000000000000000900463ffffffff1680633f3cddb11461005c578063ab70120714610266578063d379dadf14610291575b600080fd5b34801561006857600080fd5b50610264600480360360a081101561007f57600080fd5b810190808035906020019064010000000081111561009c57600080fd5b8201836020820111156100ae57600080fd5b803590602001918460018302840111640100000000831117156100d057600080fd5b91908080601f016020809104026020016040519081016040528093929190818152602001838380828437600081840152601f19601f8201169050808301925050505050505091929192908035906020019064010000000081111561013357600080fd5b82018360208201111561014557600080fd5b8035906020019184600183028401116401000000008311171561016757600080fd5b91908080601f016020809104026020016040519081016040528093929190818152602001838380828437600081840152601f19601f820116905080830192505050505050509192919290803590602001906401000000008111156101ca57600080fd5b8201836020820111156101dc57600080fd5b803590602001918460018302840111640100000000831117156101fe57600080fd5b91908080601f016020809104026020016040519081016040528093929190818152602001838380828437600081840152601f19601f8201169050808301925050505050505091929192908035906020019092919080359060200190929190505050610447565b005b34801561027257600080fd5b5061027b610590565b6040518082815260200191505060405180910390f35b34801561029d57600080fd5b506102ca600480360360208110156102b457600080fd5b8101908080359060200190929190505050610596565b604051808060200180602001806020018660018111156102e657fe5b60ff1681526020018560018111156102fa57fe5b60ff168152602001848103845289818151815260200191508051906020019080838360005b8381101561033a57808201518184015260208101905061031f565b50505050905090810190601f1680156103675780820380516001836020036101000a031916815260200191505b50848103835288818151815260200191508051906020019080838360005b838110156103a0578082015181840152602081019050610385565b50505050905090810190601f1680156103cd5780820380516001836020036101000a031916815260200191505b50848103825287818151815260200191508051906020019080838360005b838110156104065780820151818401526020810190506103eb565b50505050905090810190601f1680156104335780820380516001836020036101000a031916815260200191505b509850505050505050505060405180910390f35b6001600080828254019250508190555061045f610847565b60c060405190810160405280600054815260200187815260200186815260200185815260200184600181111561049157fe5b600181111561049c57fe5b81526020018360018111156104ad57fe5b60018111156104b857fe5b81525090508060016000805481526020019081526020016000206000820151816000015560208201518160010190805190602001906104f8929190610894565b506040820151816002019080519060200190610515929190610894565b506060820151816003019080519060200190610532929190610894565b5060808201518160040160006101000a81548160ff0219169083600181111561055757fe5b021790555060a08201518160040160016101000a81548160ff0219169083600181111561058057fe5b0217905550905050505050505050565b60005481565b60608060606000806105a6610847565b6001600088815260200190815260200160002060c0604051908101604052908160008201548152602001600182018054600181600116156101000203166002900480601f0160208091040260200160405190810160405280929190818152602001828054600181600116156101000203166002900480156106685780601f1061063d57610100808354040283529160200191610668565b820191906000526020600020905b81548152906001019060200180831161064b57829003601f168201915b50505050508152602001600282018054600181600116156101000203166002900480601f01602080910402602001604051908101604052809291908181526020018280546001816001161561010002031660029004801561070a5780601f106106df5761010080835404028352916020019161070a565b820191906000526020600020905b8154815290600101906020018083116106ed57829003601f168201915b50505050508152602001600382018054600181600116156101000203166002900480601f0160208091040260200160405190810160405280929190818152602001828054600181600116156101000203166002900480156107ac5780601f10610781576101008083540402835291602001916107ac565b820191906000526020600020905b81548152906001019060200180831161078f57829003601f168201915b505050505081526020016004820160009054906101000a900460ff1660018111156107d357fe5b60018111156107de57fe5b81526020016004820160019054906101000a900460ff16600181111561080057fe5b600181111561080b57fe5b81525050905080602001518160400151826060015183608001518460a00151849450839350829250955095509550955095505091939590929450565b60c060405190810160405280600081526020016060815260200160608152602001606081526020016000600181111561087c57fe5b81526020016000600181111561088e57fe5b81525090565b828054600181600116156101000203166002900490600052602060002090601f016020900481019282601f106108d557805160ff1916838001178555610903565b82800160010185558215610903579182015b828111156109025782518255916020019190600101906108e7565b5b5090506109109190610914565b5090565b61093691905b8082111561093257600081600090555060010161091a565b5090565b9056fea165627a7a7230582038cae63947e33ce63fb6c77645fdf68309f16e4cc6e78e19916da82feb64b54e0029",
  "source": "pragma solidity ^ 0.5.0;\r\ncontract UserloginInfo {\r\n    enum AccountType {\r\n        User,\r\n        Administrator\r\n    }\r\n    enum UseraccountType {\r\n        Students,\r\n        Company\r\n    }\r\n    uint public userIndex;  //The user index.\r\n    mapping (uint=>User) userstore;\r\n\r\n    struct User{\r\n        uint id;     //This user's index in this system \r\n        string username; //The user name for this user account\r\n        string password; //The Password of this user account\r\n        string schorcomname; //The name of the user's school or company\r\n        AccountType acttype; //The account type of the user account\r\n        UseraccountType usacty; //Types of users for normal accounts\r\n    }\r\n    constructor ()  public {\r\n        userIndex = 0;\r\n    }\r\n    //Build a new user account information structure to store the new user account information.\r\n    function addUser(string memory _username, string memory _pwd, string memory _schcomname, uint _acttype, uint _usactype) public {\r\n        userIndex += 1; //When a new user is added, index increases by 1.\r\n        User memory newuser = User(userIndex, _username, _pwd, _schcomname, AccountType(_acttype), UseraccountType(_usactype));\r\n        userstore[userIndex] = newuser;\r\n    }\r\n    //The user account information structure and its information are queried by the user index.\r\n    function getUserInfo(uint _userId) public view returns(string memory, string memory, string memory, AccountType, UseraccountType) {\r\n    User memory user = userstore[_userId];\r\n    return (user.username, user.password, user.schorcomname,user.acttype, user.usacty);\r\n    }\r\n}",
  "sourcePath": "D:/std-credential-store/contracts/UserloginInfo.sol",
  "compiler": {
    "name": "solc",
    "version": "0.5.0+commit.1d4f565a.Emscripten.clang"
  },
  "schemaVersion": "3.0.9",
  "updatedAt": "2019-08-18T10:07:05.811Z",
  "devdoc": {
    "methods": {}
  },
  "userdoc": {
    "methods": {}
  }
}